:100000000C945D000C9485000C9485000C94850084
:100010000C9485000C9485000C9485000C9485004C
:100020000C9485000C9485000C9485000C9485003C
:100030000C9485000C9485000C9485000C9485002C
:100040000C9421020C9485000C9485000C9485007E
:100050000C9485000C9485000C9485000C9485000C
:100060000C9485000C94850000000008000201003B
:100070000003040700000000000000000000000072
:10008000250028002B0000000000240027002A0083
:10009000040404040404040402020202020203032E
:1000A0000303030301020408102040800102040836
:1000B0001020010204081020B50311241FBECFEF49
:1000C000D8E0DEBFCDBF11E0A0E0B1E0E4E3FFE0A7
:1000D00002C005900D92A430B107D9F721E0A4E049
:1000E000B1E001C01D92AE32B207E1F710E0CDE5FC
:1000F000D0E004C02197FE010E949207CC35D107C1
:10010000C9F70E946B020C9498070C94000090E0D1
:10011000FC01EC55FF4F2491FC01E057FF4F849107
:10012000882399F090E0880F991FFC01EA57FF4F50
:10013000A591B491FC01E458FF4F859194918FB73C
:10014000F894EC91E22BEC938FBF089590E0FC01C2
:10015000E859FF4F2491FC01EC55FF4F3491FC010D
:10016000E057FF4FE491EE2309F43CC0222339F11C
:10017000233091F038F42130A9F0223001F584B514
:100180008F7D12C0273091F02830A1F02430B9F4CF
:10019000809180008F7D03C0809180008F77809355
:1001A00080000DC084B58F7784BD09C08091B000F8
:1001B0008F7703C08091B0008F7D8093B000F0E016
:1001C000EE0FFF1FE458FF4FA591B4919FB7F8942D
:1001D000611104C08C913095382302C0EC913E2B04
:1001E0003C939FBF08953FB7F89480910A01909186
:1001F0000B01A0910C01B0910D0126B5A89B05C083
:100200002F3F19F00196A11DB11D3FBFBA2FA92F95
:10021000982F8827820F911DA11DB11DBC01CD0112
:1002200042E0660F771F881F991F4A95D1F70895FE
:100230008F929F92AF92BF92CF92DF92EF92FF92F6
:100240006B017C010E94F3004B015C01C114D104DD
:10025000E104F104F1F00E94F300DC01CB01881904
:100260009909AA09BB09883E9340A105B10570F31D
:1002700021E0C21AD108E108F10888EE880E83E077
:10028000981EA11CB11CC114D104E104F10419F79A
:10029000DDCFFF90EF90DF90CF90BF90AF909F9019
:1002A0008F9008958EBD00000DB407FEFDCF8EB572
:1002B00008950F931F93CF93DF93182F092F8CB5B9
:1002C000837F88608CBDCEE0D1E060E08C810E94AD
:1002D000A600802F0E945201812F0E94520161E0EE
:1002E0008C81DF91CF911F910F910C94A60080918A
:1002F0002A0190912B01892B31F480910E0190916C
:100300000F01977F05C080911001909111019860B5
:1003100020912C0130912D01232B11F49B7F01C0E2
:10032000946020911301222311F09E7F01C09160FF
:1003300020911401222311F0806401C08F7B209151
:100340001501222311F0806801C08F770C945901A8
:10035000CF92DF92EF92FF92CF93DF936B017C01FC
:1003600020E23CEB4EE35BE40E94200718166CF0A1
:1003700020E030E0A901C701B6010E945F0587FFB8
:100380000CC0C12CD12C760108C030E2C32E3CEB4E
:10039000D32E3EE3E32E3BE4F32EC0921A01D0921B
:1003A0001B01E0921C01F0921D0120E030E040E8CA
:1003B0005DE4C701B6010E9425076B017C016091D5
:1003C00016017091170180911801909119010E94F6
:1003D0000C069B01AC01C701B6010E9464050E9496
:1003E000D6056B017C01EB01DF73D0640E947701BD
:1003F000CE010E945901D701C6018827907CBF70A9
:100400002EE0B595A795979587952A95D1F7906495
:10041000DF91CF91FF90EF90DF90CF900C94590136
:100420008CB5837F8CBD60E08FE00E94A60081E1E7
:100430000E9452018FEF0E94520161E08FE00C9404
:10044000A6001F920F920FB60F9211242F933F9385
:100450008F939F93AF93BF93809106019091070173
:10046000A0910801B09109013091050123E0230F0B
:100470002D3720F40196A11DB11D05C026E8230FDC
:100480000296A11DB11D2093050180930601909352
:100490000701A0930801B093090180910A0190918E
:1004A0000B01A0910C01B0910D010196A11DB11D90
:1004B00080930A0190930B01A0930C01B0930D015E
:1004C000BF91AF919F918F913F912F910F900FBE50
:1004D0000F901F901895789484B5826084BD84B580
:1004E000816084BD85B5826085BD85B5816085BD2F
:1004F00080916E00816080936E00109281008091E7
:10050000810082608093810080918100816080936E
:100510008100809180008160809380008091B10093
:1005200084608093B1008091B00081608093B000BE
:1005300080917A00846080937A0080917A00826052
:1005400080937A0080917A00816080937A00809114
:100550007A00806880937A001092C100CFB7F89437
:1005600080910401811124C0EAE9F0E08491EEEA6F
:10057000F0E09491E82FF0E0EE0FFF1FEA57FF4FF5
:10058000A591B491EC91E92321F461E08AE00E9405
:10059000A6008AE00E9487008CB580618CBD8CB576
:1005A00080648CBD8DE00E9487008BE00E948700F4
:1005B000809104018F5F80930401CFBF64E670E0F7
:1005C00080E090E00E94180180E091E00E945901D3
:1005D0006FE070E080E090E00E9418018FE00E94E0
:1005E000870060E070E583EC96E40E94A80120E0BB
:1005F00030E044EB53E460E070E0CB010E9454062D
:10060000EB01182F092F20E030E0A9010E945F05BF
:1006100087FF0CC020E030E044EB53E4BE01812FA3
:10062000902F0E94F3046B017C0103C06E01E12E48
:10063000F02E21E63BE046E351E4B601C7010E94FB
:1006400025070E94DD05CB019F70A601B7014093ED
:100650002601509327016093280170932901906E21
:100660000E94590180E090E290930F0180930E0167
:100670000E94770110922B0110922A0110922D01F5
:1006800010922C010E94770181E0809313010E9457
:1006900077010E9410028CB5837F88608CBD80ED4D
:1006A000482E87E0582E612C712C90E0C92E90E0E6
:1006B000D92EA12C20E2B22E0E943804A30192016F
:1006C0000E948F046054724A8F4F9F4F0E940E0603
:1006D0000E94A80120E030E0A901BE01812F902FE7
:1006E0000E945F0587FF0CC020E030E044EB53E43C
:1006F000BE01812F902F0E94F3044B017C0103C0A7
:100700004E01E12EF02E21E63BE046E351E4B40138
:10071000C7010E9425070E94DD05CB019F70A4013F
:10072000B7014093260150932701609328017093ED
:100730002901906E0E945901B0920F01A0920E0102
:100740000E94770110922B0110922A0110922D0124
:1007500010922C010E9477010E941002C114D10452
:1007600009F4AACF0E940000A7CFCF93DF93CEE079
:10077000D1E08EE08C830E94870061E08EE00E94D1
:10078000A60080E498E7ADE7B1E088879987AA875B
:10079000BB871E821F821D8280E090E29B838A833A
:1007A0009983888380E090E0AAE7B4E4888B998BF2
:1007B000AA8BBB8B8C879D87AE87BF87188E198EBF
:1007C0001A8E1B8E1C8A1D8A1E8A1F8A1D8E1C8EE5
:1007D0001F8E1E8EDF91CF9108958F929F92AF92C0
:1007E000BF92CF92DF92EF92FF92CF93DF93EC0113
:1007F000688179818A819B816115710581059105E7
:1008000021F464E279ED8BE597E02DE133EF41E0EF
:1008100050E00E948F0449015A019B01AC01A7EAF4
:10082000B1E40E94AE046B017C01ACEEB4EFA50113
:1008300094010E94BC04DC01CB018C0D9D1DAE1DFA
:10084000BF1DB7FF03C00197A109B04888839983F2
:10085000AA83BB83BC01CD019F77DF91CF91FF902D
:10086000EF90DF90CF90BF90AF909F908F900895C2
:100870008F929F92AF92BF92CF92DF92EF92FF92B0
:10088000609100017091010180910201909103013A
:10089000611571058105910521F464E279ED8BE51F
:1008A00097E02DE133EF41E050E00E948F044901D1
:1008B0005A019B01AC01A7EAB1E40E94AE046B01AE
:1008C0007C01ACEEB4EFA50194010E94BC04DC01F4
:1008D000CB018C0D9D1DAE1DBF1DB7FF03C0019741
:1008E000A109B0488093000190930101A0930201F7
:1008F000B0930301BC01CD019F77FF90EF90DF9093
:10090000CF90BF90AF909F908F900895609300011B
:100910007093010180930201909303010895052EC5
:1009200097FB1EF400940E94A60457FD07D00E9476
:10093000C10407FC03D04EF40C94A60450954095D6
:10094000309521953F4F4F4F5F4F0895909580957B
:10095000709561957F4F8F4F9F4F08950E94E304DC
:10096000A59F900DB49F900DA49F800D911D112403
:100970000895B7FF0C94AE040E94AE04821B930B43
:100980000895A1E21A2EAA1BBB1BFD010DC0AA1FD0
:10099000BB1FEE1FFF1FA217B307E407F50720F0E8
:1009A000A21BB30BE40BF50B661F771F881F991F63
:1009B0001A9469F760957095809590959B01AC01AC
:1009C000BD01CF010895A29FB001B39FC001A39FB5
:1009D000700D811D1124911DB29F700D811D112478
:1009E000911D08955058BB27AA270E940A050C9410
:1009F000E6060E94D80638F00E94DF0620F039F49F
:100A00009F3F19F426F40C94D5060EF4E095E7FB0D
:100A10000C94C106E92F0E94F70658F3BA17620733
:100A200073078407950720F079F4A6F50C9419074D
:100A30000EF4E0950B2EBA2FA02D0B01B9019001F9
:100A40000C01CA01A0011124FF27591B99F0593F3D
:100A500050F4503E68F11A16F040A22F232F342F85
:100A60004427585FF3CF469537952795A795F040D3
:100A70005395C9F77EF41F16BA0B620B730B840BE8
:100A8000BAF09150A1F0FF0FBB1F661F771F881FA0
:100A9000C2F70EC0BA0F621F731F841F48F48795F8
:100AA00077956795B795F7959E3F08F0B0CF9395EA
:100AB000880F08F09927EE0F9795879508950E9463
:100AC0009D0608F481E008950E9478050C94E606DE
:100AD0000E94DF0658F00E94D80640F029F45F3FDC
:100AE00029F00C94C10651110C941A070C94D506E8
:100AF0000E94F70668F39923B1F3552391F3951BF0
:100B0000550BBB27AA2762177307840738F09F5F2E
:100B10005F4F220F331F441FAA1FA9F335D00E2E9B
:100B20003AF0E0E832D091505040E695001CCAF708
:100B30002BD0FE2F29D0660F771F881FBB1F2617CB
:100B400037074807AB07B0E809F0BB0B802DBF01A2
:100B5000FF2793585F4F3AF09E3F510578F00C9471
:100B6000C1060C941A075F3FE4F3983ED4F38695D0
:100B700077956795B795F7959F5FC9F7880F911D92
:100B80009695879597F90895E1E0660F771F881F7E
:100B9000BB1F621773078407BA0720F0621B730B31
:100BA000840BBA0BEE1F88F7E09508950E94DD05CF
:100BB0006894B1110C941A0708950E94FF0688F0FA
:100BC0009F5798F0B92F9927B751B0F0E1F0660F11
:100BD000771F881F991F1AF0BA95C9F714C0B13052
:100BE00091F00E941907B1E008950C941907672F3E
:100BF000782F8827B85F39F0B93FCCF38695779581
:100C00006795B395D9F73EF4909580957095619569
:100C10007F4F8F4F9F4F0895E89409C097FB3EF494
:100C200090958095709561957F4F8F4F9F4F992339
:100C3000A9F0F92F96E9BB279395F69587957795B7
:100C40006795B795F111F8CFFAF4BB0F11F460FF77
:100C50001BC06F5F7F4F8F4F9F4F16C0882311F0CF
:100C600096E911C0772321F09EE8872F762F05C0E3
:100C7000662371F096E8862F70E060E02AF09A957E
:100C8000660F771F881FDAF7880F9695879597F973
:100C900008950E94D80620F019F00E94DF0650F453
:100CA0000C94D5060C941A07E92F0E94F70688F3D6
:100CB0005523B1F3E7FB6217730784079507A8F183
:100CC00089F3E92FFF2788232AF03197660F771FD2
:100CD000881FDAF7952F5527442332F09150504062
:100CE000220F331F441FD2F7BB27E91BF50B621BF2
:100CF000730B840BB109B1F222F4620F731F841FCE
:100D0000B11D31972AF0660F771F881FBB1FEFCFE9
:100D10009150504062F041F0882332F0660F771F07
:100D2000881F91505040C1F793950C94C706869543
:100D3000779567959F5FD9F7F7CF990F0008550F03
:100D4000AA0BE0E8FEEF16161706E807F907C0F051
:100D500012161306E407F50798F0621B730B840B59
:100D6000950B39F40A2661F0232B242B252B21F433
:100D700008950A2609F4A140A6958FEF811D811DD3
:100D8000089597F99F6780E870E060E008959F3FBD
:100D900031F0915020F4879577956795B795880F36
:100DA000911D9695879597F908959FEF80EC08958A
:100DB00000240A941616170618060906089500243A
:100DC0000A9412161306140605060895092E0394B4
:100DD000000C11F4882352F0BB0F40F4BF2B11F428
:100DE00060FF04C06F5F7F4F8F4F9F4F089557FD87
:100DF0009058440F551F59F05F3F71F04795880F89
:100E000097FB991F61F09F3F79F08795089512161F
:100E100013061406551FF2CF4695F1DF08C01616CB
:100E200017061806991FF1CF86957105610508947C
:100E30000895E894BB2766277727CB0197F9089593
:100E40000E949D0608F48FEF08950E9438070C94C5
:100E5000E6060E94D80638F00E94DF0620F09523AF
:100E600011F00C94C1060C94D50611240C941A07A9
:100E70000E94F70670F3959FC1F3950F50E0551F40
:100E8000629FF001729FBB27F00DB11D639FAA27DF
:100E9000F00DB11DAA1F649F6627B00DA11D661F2E
:100EA000829F2227B00DA11D621F739FB00DA11D4F
:100EB000621F839FA00D611D221F749F3327A00D09
:100EC000611D231F849F600D211D822F762F6A2FA5
:100ED00011249F5750409AF0F1F088234AF0EE0F0A
:100EE000FF1FBB1F661F771F881F91505040A9F737
:100EF0009E3F510580F00C94C1060C941A075F3F89
:100F0000E4F3983ED4F3869577956795B795F79572
:100F1000E7959F5FC1F7FE2B880F911D96958795EA
:100F200097F90895EE0FFF1F0590F491E02D0994B5
:040F3000F894FFCF63
:040F340001000000B8
:00000001FF
